:100000000C9434000C943E000C943E000C943E0082
:100010000C943E000C943E000C943E000C943E0068
:100020000C943E000C943E000C943E000C943E0058
:100030000C943E000C943E000C943E000C943E0048
:100040000C943E000C943E000C943E000C943E0038
:100050000C943E000C943E000C943E000C943E0028
:100060000C943E000C943E0011241FBECFEFD8E04C
:10007000DEBFCDBF0E9440000C946C000C940000C9
:10008000209A219A15B8289A2FEF89E698E12150F5
:1000900080409040E1F700C00000299A2FEF89E6E8
:1000A00098E1215080409040E1F700C0000029987D
:1000B0002FEF89E698E1215080409040E1F700C0A1
:1000C000000028982FEF89E698E121508040904069
:0C00D000E1F700C00000D7CFF894FFCF8C
:00000001FF
