:100000000C9434000C9459000C943E000C943E0067
:100010000C943E000C943E000C943E000C943E0068
:100020000C943E000C943E000C943E000C943E0058
:100030000C943E000C943E000C943E000C943E0048
:100040000C943E000C943E000C943E000C943E0038
:100050000C943E000C943E000C943E000C943E0028
:100060000C943E000C943E0011241FBECFEFD8E04C
:10007000DEBFCDBF0E9467000C94A4000C9400006A
:100080009BB19F709BB995B1907F95B92BB190E0D2
:10009000AC0134E0440F551F3A95E1F7242B2BB9FE
:1000A00025B144E0959587954A95E1F7822B85B96E
:1000B00008951F920F920FB60F9211248F9380E133
:1000C00089B98F910F900FBE0F901F9018958BB12B
:1000D0008F708BB985B1807F85B98AB1806F8AB9FD
:1000E00084B18F6084B980EF0E9440002FEF89E6D1
:1000F00098E1215080409040E1F700C000008FE07F
:100100000E9440002FEF89E698E121508040904006
:10011000E1F700C000008CEC0E9440002FEF89E660
:1001200098E1215080409040E1F700C0000083EC4E
:100130000E9440002FEF89E698E1215080409040D6
:0C014000E1F700C00000CFCFF894FFCF23
:00000001FF
