:100000000C9434000C9440000C943E000C943E0080
:100010000C943E000C943E000C943E000C943E0068
:100020000C943E000C943E000C943E000C943E0058
:100030000C943E000C943E000C943E000C943E0048
:100040000C943E000C943E000C943E000C943E0038
:100050000C943E000C943E000C943E000C943E0028
:100060000C943E000C943E0011241FBECFEFD8E04C
:10007000DEBFCDBF0E944E000C9477000C940000B0
:100080001F920F920FB60F9211248F9382E083B9C3
:100090008F910F900FBE0F901F90189584B18360C1
:1000A00084B98AB18AB985B18C7F85B98BB18C60EE
:1000B0008BB980916900836080936900E89A8FB75B
:1000C00080688FBF289A2FEF89E698E12150804001
:1000D0009040E1F700C0000028982FEF89E698E1F2
:1000E000215080409040E1F700C00000EBCFF89431
:0200F000FFCF40
:00000001FF
