:100000000C9434000C943E000C943E000C943E0082
:100010000C943E000C943E000C943E000C943E0068
:100020000C943E000C943E000C943E000C943E0058
:100030000C943E000C943E000C943E000C943E0048
:100040000C943E000C943E000C943E000C943E0038
:100050000C943E000C943E000C943E000C943E0028
:100060000C943E000C943E0011241FBECFEFD8E04C
:10007000DEBFCDBF0E9440000C9458000C940000DD
:1000800081E084B915B8289A2FEF89E698E12150CC
:1000900080409040E1F700C0000028982FEF89E6EB
:1000A00098E1215080409040E1F700C00000EBCF84
:0400B000F894FFCFF2
:00000001FF
