:100000000C9434000C9446000C9446000C9446006A
:100010000C9446000C9446000C9446000C94460048
:100020000C9446000C9446000C9446000C94460038
:100030000C9446000C9446000C9448000C94460026
:100040000C9446000C9446000C9446000C94460018
:100050000C9446000C9446000C9446000C94460008
:100060000C9446000C94460011241FBECFEFD8E03C
:10007000DEBFCDBF21E0A0E0B1E001C01D92A830FD
:10008000B207E1F70E946D000C94A6000C940000EA
:100090001F920F920FB60F9211248F939F93AF93DD
:1000A000BF938091000190910101A0910201B09154
:1000B00003010196A11DB11D8093000190930101E0
:1000C000A0930201B0930301BF91AF919F918F91D3
:1000D0000F900FBE0F901F90189584B5826084BD5D
:1000E00085B5836085BD89EF87BD80916E00826094
:1000F00080936E002898209A21E0F8948091000166
:1001000090910101A0910201B09103017894409176
:1001100004015091050160910601709107017C0175
:100120008D01E41AF50A060B170BB801A701443F2D
:1001300051406105710508F323B980930401909340
:100140000501A0930601B0930701D7CFF894FFCF24
:00000001FF
