:100000000C9434000C943E000C943E000C943E0082
:100010000C943E000C943E000C943E000C943E0068
:100020000C943E000C943E000C943E000C943E0058
:100030000C943E000C943E000C943E000C943E0048
:100040000C943E000C943E000C943E000C943E0038
:100050000C943E000C943E000C943E000C943E0028
:100060000C943E000C943E0011241FBECFEFD8E04C
:10007000DEBFCDBF0E9440000C945B000C940000DA
:10008000219A209A28982998289A299A2FEF89E668
:1000900098E1215080409040E1F700C0000028988E
:1000A00029982FEF89E698E1215080409040E1F7B0
:0A00B00000C00000E9CFF894FFCF74
:00000001FF
